:100000000C9446000C9465000C9465000C946500FB
:100010000C9465000C9465000C9465000C946500CC
:100020000C9465000C9465000C9465000C946500BC
:100030000C9465000C940C010C9465000C94650004
:100040000C9465000C9465000C9465000C9465009C
:100050000C9465000C9465000C9465000C9465008C
:100060000C9465000C9465000C9465000C9465007C
:100070000C9465000C9465000C9465000C9465006C
:100080000C9465000C9465000C94650011241FBE4F
:10009000CFEFD0E4DEBFCDBF11E0A0E0B1E0E8E1FA
:1000A000F1E200E00BBF02C007900D92AE32B10743
:1000B000D9F722E0AEE2B1E001C01D92AF33B20742
:1000C000E1F70E94B40B0C948A100C940000CF93BB
:1000D000DF9300D01F92CDB7DEB789837B836A831D
:1000E00089818A3031F48A819B81BC018DE00E9434
:1000F000670080EC90E0FC018081882F90E08072A6
:100100009927892BB1F386EC90E02981FC012083AB
:1001100080E090E00F900F900F90DF91CF910895C5
:10012000CF93DF9300D000D0CDB7DEB769837A8359
:100130008B839C8389819A81AB81BC8180930E01E2
:1001400090930F01A0931001B093110180910E01C3
:1001500090910F01A0911001B091110180932F0196
:1001600090933001A0933101B093320100000F90C1
:100170000F900F900F90DF91CF910895CF93DF9361
:10018000CDB7DEB781E890E02BE0FC01208388E862
:1001900090E02DE730E0FC01318320838FE690E092
:1001A00022E0FC01208384E890E0FC0111821082AF
:1001B00080910E0190910F01A0911001B091110159
:1001C00080932F0190933001A0933101B0933201BD
:1001D0008FE590E02FE530E0F90120812068FC01F7
:1001E00020830000DF91CF910895CF93DF93CDB7A7
:1001F000DEB781E890E0FC0110820000DF91CF9132
:100200000895CF93DF93CDB7DEB781E080932E01C1
:100210000000DF91CF9108951F920F9200905F0030
:100220000F92112400905B000F922F933F934F93F6
:100230005F936F937F938F939F93AF93BF93EF934E
:10024000FF93CF93DF93CDB7DEB780912F019091CD
:100250003001A0913101B09132010197A109B1099A
:1002600080932F0190933001A0933101B09332011C
:1002700080912F0190913001A0913101B091320114
:10028000892B8A2B8B2B91F40E94010180910E0106
:1002900090910F01A0911001B091110180932F0155
:1002A00090933001A0933101B09332010000DF91AF
:1002B000CF91FF91EF91BF91AF919F918F917F91DE
:1002C0006F915F914F913F912F910F9000925B0042
:1002D0000F9000925F000F901F9018950F931F933F
:1002E000CF93DF9300D000D0CDB7DEB769837A8398
:1002F0008B839C8320E030E0A90169817A818B8126
:100300009C810E945B0E882351F481E990E021E9F1
:1003100030E0F90120812870FC01208309C081E9C7
:1003200090E021E930E0F90120812360FC01208385
:1003300028E539E344E75FE369817A818B819C8119
:100340000E945B0E882344F488E990E02FEF3FEF92
:10035000FC013183208334C020E034E244EF56E4D2
:1003600069817A818B819C810E947D0F181634F4FB
:1003700088E990E0FC011182108222C008E910E0B7
:1003800020E030E040E053E469817A818B819C81F8
:100390000E94820FDC01CB019C01AD0160E074E2A0
:1003A00084EF9AE40E94600EDC01CB01BC01CD0118
:1003B0000E94D20EDC01CB010197F801918380836A
:1003C00084E990E0FC011182108200000F900F90F0
:1003D0000F900F90DF91CF911F910F910895CF93C0
:1003E000DF93CDB7DEB780E990E020E4FC01208305
:1003F00081E990E02BE0FC01208360E070E0CB011C
:100400000E946E010000DF91CF910895CF93DF939A
:10041000CDB7DEB780E990E0FC01108281E990E081
:10042000FC0110820000DF91CF910895CF93DF93FC
:1004300000D01F92CDB7DEB789836A834B838B814F
:10044000882371F08A81282F30E081E090E002C09B
:10045000880F991F2A95E2F7982F8981892B0EC062
:100460008A81282F30E081E090E002C0880F991F38
:100470002A95E2F7982F9095898189230F900F9004
:100480000F90DF91CF910895CF93DF9300D0CDB738
:10049000DEB789836A838A81282F30E081E090E08B
:1004A00002C0880F991F2A95E2F7982F8981892326
:1004B0000F900F90DF91CF910895CF93DF93CDB739
:1004C000DEB72C970FB6F894DEBF0FBECDBF6D839D
:1004D0007E838F83988729873A874B875C878D81B6
:1004E0009E81AF81B88529853A854B855C85BC01A5
:1004F000CD010E94250EDC01CB0189839A83AB8359
:10050000BC8389819A81AB81BC81892B8A2B8B2BFF
:1005100029F489859A85AB85BC8511C089859A8522
:10052000AB85BC858D839E83AF83B88789819A8193
:10053000AB81BC8189879A87AB87BC87D0CFBC0150
:10054000CD012C960FB6F894DEBF0FBECDBFDF9164
:10055000CF910895CF93DF93CDB7DEB78AE790E0D0
:100560002AE730E0F9012081206EFC0120830000A1
:10057000DF91CF910895CF93DF931F92CDB7DEB770
:1005800089838CE790E02981283028F02CE730E03F
:10059000F901208101C02981FC01208310924101D1
:1005A00006C00000809141018F5F809341018091DE
:1005B00041018F30B0F300000F90DF91CF9108958B
:1005C000CF93DF9300D0CDB7DEB79A83898389813B
:1005D0009A818130910509F4B5C08230910509F402
:1005E000C7C0892B09F0DAC08091880190918901F8
:1005F0008130934040F08091BE019091BF018130E5
:10060000934008F09AC080918801909189018130CF
:10061000934048F08091BE019091BF018F3F9105BA
:1006200009F008F48AC080918801909189018F3F78
:10063000910509F040F48091BE019091BF01813095
:10064000934008F07AC080918801909189018F3F92
:10065000910509F048F48091BE019091BF018F3F50
:10066000910509F008F469C08091BE019091BF0125
:100670008F3E924098F0809112018C3609F460C050
:1006800082E78093120181E090E090931A018093B9
:10069000190181E090E09A83898352C08091BE0164
:1006A0009091BF0182319140C0F480911201823754
:1006B00009F446C08091170190911801892B09F027
:1006C0003FC08CE68093120110921A01109219011A
:1006D00081E090E09A83898333C080918801909172
:1006E00089018F3E924090F080911201843641F151
:1006F00085E78093120181E090E090931A01809346
:10070000190182E090E09A8389831AC08091880160
:10071000909189018231914098F48091120185373E
:1007200079F084E68093120110921A011092190157
:1007300082E090E09A83898303C01A82198231C0D3
:1007400000002FC08091BE019091BF018F3E92406A
:1007500038F48091BE019091BF018231914028F41C
:1007600081E090E09A8389831CC01A82198219C0A3
:1007700080918801909189018F3E924038F4809158
:100780008801909189018231914028F482E090E0C3
:100790009A83898306C01A82198203C01A82198239
:1007A0000000000089819A810F900F90DF91CF9116
:1007B0000895CF93DF9300D000D0CDB7DEB79C83F0
:1007C0008B838B819C81892B09F022C480918601C7
:1007D000882F90E0807F9927409761F481E090E036
:1007E00090938D0180938C0182E090E0909395012D
:1007F0008093940180918C0190918D01019709F073
:1008000004C460E070E0CB010E946E01809194010D
:1008100090919501892BB9F4809133019091340125
:10082000892B89F488E290E026E6FC0120838BE2A4
:1008300090E02CE1FC01208381E090E09093340172
:1008400080933301E2C38091940190919501892BAB
:10085000B9F48091330190913401019789F48BE2CE
:1008600090E02FE0FC01208388E290E022E4FC018C
:10087000208382E090E09093340180933301C5C3DC
:100880008091940190919501892BA9F48091330175
:1008900090913401029779F48BE290E027E1FC011A
:1008A000208388E290E02CE3FC0120831092340145
:1008B00010923301AAC38091940190919501019700
:1008C00009F04AC280913B0190913C01892B09F0CB
:1008D00043C28091E9019091EA01892B29F5809129
:1008E000370190913801892B89F488E290E027E064
:1008F000FC0120838BE290E02EE0FC01208381E06C
:1009000090E090933801809337011FC288E290E015
:1009100025E0FC0120838BE290E0FC011082109224
:1009200038011092370111C28091E9019091EA01DA
:10093000019729F58091370190913801892B81F435
:1009400088E290E022E0FC0120838BE290E0FC0151
:10095000108281E090E09093380180933701F5C1D7
:1009600088E290E024E0FC0120838BE290E02DE11E
:10097000FC0120831092380110923701E6C180916A
:10098000E9019091EA010297E9F580913701909190
:100990003801892B89F488E290E027E0FC0120836C
:1009A0008BE290E02AE0FC01208381E090E09093CC
:1009B000380180933701C9C1809137019091380186
:1009C000019789F488E290E021E0FC0120838BE22A
:1009D00090E02DE1FC01208382E090E090933801CB
:1009E00080933701B2C188E290E024E0FC012083CB
:1009F0008BE290E027E1FC012083109238011092F5
:100A00003701A3C18091E9019091EA01039731F583
:100A10008091370190913801892B89F488E290E028
:100A200027E0FC0120838BE290E02AE0FC01208398
:100A300081E090E0909338018093370186C188E28D
:100A400090E021E0FC0120838BE290E025E1FC01B5
:100A50002083109238011092370177C18091E9010B
:100A60009091EA010497E1F5809137019091380166
:100A7000892B81F488E290E021E0FC0120838BE265
:100A800090E0FC01108281E090E090933801809327
:100A900037015BC18091370190913801019789F44A
:100AA00088E290E022E0FC0120838BE290E02BE1E1
:100AB000FC01208382E090E090933801809337011D
:100AC00044C188E290E024E0FC0120838BE290E0C6
:100AD00028E1FC012083109238011092370135C1C2
:100AE0008091E9019091EA010597E9F5809137013C
:100AF00090913801892B89F488E290E027E0FC018D
:100B000020838BE290E02AE0FC01208381E090E0EA
:100B1000909338018093370118C1809137019091EB
:100B20003801019789F488E290E021E0FC012083FC
:100B30008BE290E027E1FC01208382E090E090933B
:100B400038018093370101C188E290E024E0FC0184
:100B500020838BE290E02DE1FC012083109238018C
:100B600010923701F2C08091E9019091EA01069755
:100B7000E9F58091370190913801892B89F488E259
:100B800090E027E0FC0120838BE290E02AE0FC016A
:100B9000208381E090E09093380180933701D5C0A5
:100BA0008091370190913801019789F488E290E0B3
:100BB00021E0FC0120838BE290E027E1FC0120830F
:100BC00082E090E09093380180933701BEC088E2C4
:100BD00090E024E0FC0120838BE290E025E1FC0121
:100BE00020831092380110923701AFC08091E90143
:100BF0009091EA010797E1F58091370190913801D2
:100C0000892B81F488E290E021E0FC0120838BE2D3
:100C100090E0FC01108281E090E090933801809395
:100C2000370193C08091370190913801019789F481
:100C300088E290E022E0FC0120838BE290E02EE14C
:100C4000FC01208382E090E090933801809337018B
:100C50007CC088E290E024E0FC0120838BE290E0FD
:100C60002CE1FC01208310923801109237016DC0F5
:100C70008091E9019091EA01089731F5809137015F
:100C800090913801892B89F488E290E027E0FC01FB
:100C900020838BE290E02AE0FC01208381E090E059
:100CA000909338018093370150C088E290E025E0AE
:100CB000FC0120838BE290E025E1FC01208310926F
:100CC00038011092370141C08091E9019091EA0109
:100CD0000997D9F58091370190913801892B89F4D2
:100CE00088E290E027E0FC0120838BE290E02AE19B
:100CF000FC01208381E090E09093380180933701DC
:100D000024C08091370190913801019781F488E2E5
:100D100090E021E0FC0120838BE290E0FC01108256
:100D200082E090E090933801809337010EC088E212
:100D300090E024E0FC0120838BE290E02DE1FC01B7
:100D40002083109238011092370181E090E0909357
:100D50003C0180933B0159C1809194019091950190
:100D6000019709F0D0C080913B0190913C0101971F
:100D700009F0C9C080918A0190918B01892B29F5D6
:100D80008091390190913A01892B89F488E290E0B1
:100D900020EEFC0120838BE290E02EE0FC0120831A
:100DA00081E090E090933A0180933901A7C088E2F6
:100DB00090E020EAFC0120838BE290E0FC011082AD
:100DC00010923A011092390199C080918A01909154
:100DD0008B01019729F58091390190913A01892B76
:100DE00081F488E290E020E2FC0120838BE290E035
:100DF000FC01108281E090E090933A0180933901E8
:100E00007DC088E290E020E4FC0120838BE290E04A
:100E10002DE1FC01208310923A01109239016EC03D
:100E200080918A0190918B010297E9F580913901B7
:100E300090913A01892B89F488E290E020EEFC0140
:100E400020838BE290E02AE0FC01208381E090E0A7
:100E500090933A018093390151C08091390190916A
:100E60003A01019789F488E290E020E8FC012083B0
:100E70008BE290E02DE1FC01208382E090E09093F2
:100E80003A01809339013AC088E290E020E2FC0107
:100E900020838BE290E027E1FC01208310923A014D
:100EA000109239012BC080918A0190918B01039798
:100EB00029F58091390190913A01892B89F488E2D2
:100EC00090E020EEFC0120838BE290E02AE0FC0120
:100ED000208381E090E090933A01809339010EC025
:100EE00088E290E020E8FC0120838BE290E025E19D
:100EF000FC01208310923A011092390110923C01BA
:100F000010923B0182C080919401909195010297CB
:100F100009F07BC01A82198211C089819A8185519A
:100F20009E4FFC01108289819A8180549E4FFC0162
:100F3000108289819A8101969A83898389819A8115
:100F400088975CF388E290E020E7FC0120838BE245
:100F500090E02BE1FC01208380E1809385018BE20E
:100F600090E0FC0180818093870180E18093EB0118
:100F70008BE290E0FC0180818093C00180E280934D
:100F8000EC018BE290E0FC0180818093C10180E460
:100F90008093ED018BE290E0FC0180818093C2019F
:100FA00083E090E090938F0180938E0110921C015A
:100FB00010921B0181E090E0909314018093130143
:100FC00081E090E09093180180931701109238010E
:100FD0001092370110923A011092390110923C019F
:100FE00010923B0110929301109292011092950180
:100FF0001092940110928D0110928C0110923E017A
:1010000010923D0181E6809312011C821B8203C075
:101010001C821B82000000008B819C810F900F902E
:101020000F900F90DF91CF910895CF93DF93CDB7BD
:10103000DEB728970FB6F894DEBF0FBECDBF9887F6
:101040008F838F819885892B09F0A0C18BE290E076
:10105000FC0180818F31C9F08BE290E0FC0180813E
:101060008F3199F088E290E0FC018081813868F44A
:1010700088E290E0FC018081882339F080918C0126
:1010800090918D01019709F06AC080919201909131
:101090009301892B51F580918E0190918F010397D7
:1010A00090938F0180938E0180918E0190918F019A
:1010B0002AE030E0B9010E94110ECB0190938B0120
:1010C00080938A0180918E0190918F012AE030E017
:1010D000B9010E94110E9093EA018093E90181E029
:1010E00090E0909393018093920180918C01909174
:1010F0008D01892B39F481E090E090938D018093EC
:101100008C0140C18091940190919501029709F45E
:1011100039C180913D0190913E010397B1F48091D6
:10112000940190919501892B39F481E090E090939E
:1011300095018093940104C010929501109294013E
:1011400010923E0110923D011DC180913D01909190
:101150003E01019690933E0180933D0113C1809121
:101160001201813609F40FC11A8219821DC08981CA
:101170009A8185519E4FFC01208189819A818A56EE
:101180009E4FFC01208389819A8180549E4FFC01EF
:10119000208189819A818D5E9D4FFC012083898108
:1011A0009A8101969A83898389819A818897F8F236
:1011B00080911201853789F480911701909118016F
:1011C000019721F410921801109217018091870164
:1011D000869580618093870136C0809112018436A4
:1011E000A9F48091170190911801019721F41092B0
:1011F00018011092170180918701882F90E0880FC5
:10120000991F8E718160809387011DC080911201AA
:10121000823781F48091170190911801019721F490
:101220001092180110921701809185018695809384
:10123000850109C0809112018C3629F480918501C5
:10124000880F809385019091EB018091840198171C
:10125000F9F49091C0018091E8019817C9F4809148
:10126000350190913601019799F410923601109250
:10127000350180918E0190918F01019690938F019D
:1012800080938E0181E090E0909391018093900192
:1012900080918E0190918F01889731F481E090E0E8
:1012A00090938D0180938C011C821B8224C08B81C2
:1012B0009C8185519E4FFC019081809185019817FA
:1012C000A9F48B819C8180549E4FFC019081809178
:1012D0008701981759F481E090E090938D018093F5
:1012E0008C0160E070E0CB010E946E018B819C81DB
:1012F00001969C838B8380918E0190918F019C013C
:101300008B819C818217930790F280918C01909140
:101310008D010197C1F1809185018093EB0180914E
:1013200087018093C00181E090E09E838D831FC080
:101330008D819E8101978A569E4FFC0120818D816F
:101340009E8185519E4FFC0120838D819E81019756
:101350008D5E9D4FFC0120818D819E8180549E4F2A
:10136000FC0120838D819E8101969E838D838091D7
:101370008E0190918F019C018D819E818217930730
:10138000B8F201C0000018861F8203C018861F82B1
:10139000000000008F81988528960FB6F894DEBF74
:1013A0000FBECDBFDF91CF910895CF93DF9300D0D3
:1013B000CDB7DEB79A83898389819A81892B09F019
:1013C00080C080919001909191010197E1F480910A
:1013D000330190913401892BB1F460E070E086E92B
:1013E00093E40E946E018091330190913401019643
:1013F000909334018093330181E090E09093400119
:1014000080933F0126C080919001909191010197B6
:10141000D9F480913301909134010197A9F460E0EF
:1014200070E08AEF93E40E946E0110929101109295
:101430009001109234011092330181E090E090937A
:10144000400180933F0105C060E070E0CB010E9445
:101450006E0180913F0190914001892B59F5809157
:10146000190190911A01892B69F460E070E086E11E
:1014700094E40E946E018FEF9FEF90931A01809386
:10148000190118C08091190190911A01019769F40E
:1014900060E070E08FE294E40E946E018FEF9FEFB6
:1014A00090931A018093190105C060E070E0CB01B0
:1014B0000E946E011092400110923F011A8219821F
:1014C00003C01A8219820000000089819A810F905E
:1014D0000F90DF91CF910895CF93DF9300D0CDB7D8
:1014E000DEB79A83898389819A81892B09F045C067
:1014F00080918C0190918D010197E1F180911B0108
:1015000090911C0185519E4FFC018081882311F12F
:1015100088E290E020911B0130911C0125513E4F43
:10152000F9012081FC0120838BE290E020911B01D6
:1015300030911C0120543E4FF9012081FC01208391
:1015400080911B0190911C01019690931C01809346
:101550001B0110C088E290E020918401FC012083EF
:101560008BE290E02091E801FC01208310921C01A5
:1015700010921B011A82198203C01A82198200007C
:10158000000089819A810F900F90DF91CF9108958B
:10159000CF93DF93CDB7DEB728970FB6F894DEBFB1
:1015A0000FBECDBF98878F838F819885892B09F0D7
:1015B000CCC08091130190911401019781F481E0D6
:1015C00090E0909336018093350182E0809384010E
:1015D0008BE18093E8011092140110921301809125
:1015E000350190913601892B09F0ACC00E943A1068
:1015F00087709078992324F40197886F9F6F0196E4
:101600009C838B830E943A1025E030E0B9010E9450
:10161000110E9E838D838B819C81892B21F481E027
:101620008093840137C08B819C81019721F482E0F3
:10163000809384012FC08B819C81029721F484E0E8
:101640008093840127C08B819C81039721F488E0DB
:10165000809384011FC08B819C81049721F480E1D9
:101660008093840117C08B819C81059721F480E2CF
:10167000809384010FC08B819C81069721F480E4C4
:101680008093840107C08B819C81079719F480E8BF
:10169000809384018D819E81892B21F48EE180933A
:1016A000E8011FC08D819E81019721F48DE1809317
:1016B000E80117C08D819E81029721F48BE1809310
:1016C000E8010FC08D819E81039721F487E180930B
:1016D000E80107C08D819E81049719F48FE0809303
:1016E000E8011A82198224C089819A8185519E4F0E
:1016F000FC01908180918401981779F489819A8105
:1017000080549E4FFC0190818091E801981729F444
:10171000109236011092350115C081E090E090934F
:1017200036018093350189819A8101969A83898354
:1017300080918E0190918F019C0189819A818217FD
:10174000930790F218861F8203C018861F8200003C
:1017500000008F81988528960FB6F894DEBF0FBEE3
:10176000CDBFDF91CF9108950F931F93CF93DF9358
:10177000CDB7DEB763970FB6F894DEBF0FBECDBF0F
:1017800080E090E00E94FE0DDC01CB010E943E1043
:1017900081E290E0FC01108282E290E02FEFFC01F8
:1017A000208384E290E02FEFFC01208385E290E02B
:1017B000FC01108287E290E02FEFFC0120838BE296
:1017C00090E0FC0110828AE290E02FEFFC01208380
:1017D00088E290E0FC0110821A82198211C089818E
:1017E0009A8185519E4FFC01108289819A81805493
:1017F0009E4FFC01108289819A8101969A83898388
:1018000089819A8188975CF388E290E020E7FC0167
:1018100020838BE290E02BE1FC01208380E1809328
:1018200085018BE290E0FC0180818093870180E15B
:101830008093EB018BE290E0FC0180818093C001FA
:1018400080E28093EC018BE290E0FC018081809348
:10185000C10180E48093ED018BE290E0FC01808186
:101860008093C20183E090E090938F0180938E017A
:101870000E94AA028CE0E1E2F1E0DE0118960190FC
:101880000D928A95E1F786E090E09E838D838FEF3D
:101890008F838F818093420181E090E0A0E0B0E0EF
:1018A0008093430190934401A0934501B093460176
:1018B0008091430190914401A0914501B09146016E
:1018C0008093470190934801A0934901B0934A0146
:1018D00080EE92E090934C0180934B018F81809336
:1018E0004D018CE291E0A0E0B0E080934E01909336
:1018F0004F01A0935001B093510180914E019091FE
:101900004F01A0915001B0915101809352019093E9
:101910005301A0935401B093550185E198E0909351
:101920005701809356018F818093580181E090E0A8
:10193000A0E0B0E08093590190935A01A0935B011D
:10194000B0935C018091590190915A01A0915B0183
:10195000B0915C0180935D0190935E01A0935F0163
:10196000B093600189ED93E09093620180936101EF
:101970008F818093630181E090E0A0E0B0E08093EC
:10198000640190936501A0936601B0936701809113
:10199000640190916501A0916601B0916701809307
:1019A000680190936901A0936A01B0936B018CE682
:1019B0009AE090936D0180936C018F8180936E010A
:1019C00081E090E0A0E0B0E080936F01909370011F
:1019D000A0937101B093720180916F019091700199
:1019E000A0917101B0917201809373019093740181
:1019F000A0937501B093760188EC9AE090937801FA
:101A0000809377018F818093790184E690E0A0E054
:101A1000B0E080937A0190937B01A0937C01B09316
:101A20007D0180917A0190917B01A0917C01B09120
:101A30007D0180937E0190937F01A0938001B093FC
:101A4000810185ED99E090938301809382010E944A
:101A5000EF0161E070E080E090E00E9490000E9461
:101A6000BE0080E290E0FC01808180958093860139
:101A700080E00E94BB0288E790E0FC0180819181B8
:101A80009093BF018093BE0182E00E94BB0288E771
:101A900090E0FC018081918190938901809388017D
:101AA0001C821B829BC08B819C81880F991F9E0189
:101AB0002F5F3F4F820F931F0796FC01808191811A
:101AC000FC0125813681478150858B819C81880F5F
:101AD000991FBE016F5F7F4F860F971F0796FC010E
:101AE00080819181FC0181819281A381B481281739
:101AF00039074A075B0709F045C08B819C81880F35
:101B0000991F9E012F5F3F4F820F931F0796FC0185
:101B1000008111818B819C81880F991F9E012F5F0D
:101B20003F4F820F931F0796FC0180819181FC013A
:101B3000218532858B819C81880F991FAE014F5F73
:101B40005F4F840F951F0796FC0180819181FC01F6
:101B50008081082E000C990BF9010995F80180830A
:101B60008B819C81880F991F9E012F5F3F4F820FB1
:101B7000931F0796FC0180819181FC0115821682DA
:101B8000178210868B819C81880F991F9E012F5F81
:101B90003F4F820F931F0796FC01208131818B817B
:101BA0009C81880F991FAE014F5F5F4F840F951F77
:101BB0000796FC0180819181FC0185819681A78136
:101BC000B0850196A11DB11DF90185839683A78378
:101BD000B0878B819C8101969C838B832B813C8178
:101BE0008D819E812817390708F45DCF0000809110
:101BF0002E018823E1F310922E0133CFFC010FB6A2
:101C0000F89460913B0270913C0280913D0290916A
:101C10003E020FBE309721F06083718382839383ED
:101C2000089597FB072E16F4009407D077FD09D08E
:101C30000E94470E07FC05D03EF4909581959F4F7A
:101C40000895709561957F4F0895A1E21A2EAA1B01
:101C5000BB1BFD010DC0AA1FBB1FEE1FFF1FA2175C
:101C6000B307E407F50720F0A21BB30BE40BF50B59
:101C7000661F771F881F991F1A9469F760957095E2
:101C8000809590959B01AC01BD01CF010895AA1BE1
:101C9000BB1B51E107C0AA1FBB1FA617B70710F057
:101CA000A61BB70B881F991F5A95A9F78095909589
:101CB000BC01CD0108950E94080F08F481E0089549
:101CC0000E94740E0C94430F0E943C0F58F00E9427
:101CD000350F40F029F45F3F29F00C942C0F51117F
:101CE0000C94770F0C94320F0E94540F68F39923D1
:101CF000B1F3552391F3951B550BBB27AA27621708
:101D00007307840738F09F5F5F4F220F331F441F14
:101D1000AA1FA9F335D00E2E3AF0E0E832D0915048
:101D20005040E695001CCAF72BD0FE2F29D0660F35
:101D3000771F881FBB1F261737074807AB07B0E878
:101D400009F0BB0B802DBF01FF2793585F4F3AF07E
:101D50009E3F510578F00C942C0F0C94770F5F3F49
:101D6000E4F3983ED4F3869577956795B795F79504
:101D70009F5FC9F7880F911D9695879597F90895EC
:101D8000E1E0660F771F881FBB1F62177307840788
:101D9000BA0720F0621B730B840BBA0BEE1F88F797
:101DA000E09508950E94D90E6894B1110C94770FB4
:101DB00008950E945C0F88F09F5798F0B92F9927DB
:101DC000B751B0F0E1F0660F771F881F991F1AF026
:101DD000BA95C9F714C0B13091F00E94760FB1E006
:101DE00008950C94760F672F782F8827B85F39F005
:101DF000B93FCCF3869577956795B395D9F73EF4BF
:101E000090958095709561957F4F8F4F9F4F089566
:101E1000990F0008550FAA0BE0E8FEEF16161706FB
:101E2000E807F907C0F012161306E407F50798F063
:101E3000621B730B840B950B39F40A2661F0232B7C
:101E4000242B252B21F408950A2609F4A140A695F8
:101E50008FEF811D811D089597F99F6780E870E0DD
:101E600060E008959FEF80EC089500240A94161610
:101E7000170618060906089500240A941216130678
:101E8000140605060895092E0394000C11F4882306
:101E900052F0BB0F40F4BF2B11F460FF04C06F5F22
:101EA0007F4F8F4F9F4F089557FD9058440F551FF8
:101EB00059F05F3F71F04795880F97FB991F61F0CC
:101EC0009F3F79F087950895121613061406551F43
:101ED000F2CF4695F1DF08C0161617061806991FAF
:101EE000F1CF86957105610508940895E894BB27A4
:101EF00066277727CB0197F908950E94080F08F409
:101F00008FEF08950E94950F0C94430F0E94350F98
:101F100038F00E943C0F20F0952311F00C942C0F08
:101F20000C94320F11240C94770F0E94540F70F30D
:101F3000959FC1F3950F50E0551F629FF001729F6E
:101F4000BB27F00DB11D639FAA27F00DB11DAA1F7D
:101F5000649F6627B00DA11D661F829F2227B00DCA
:101F6000A11D621F739FB00DA11D621F839FA00D55
:101F7000611D221F749F3327A00D611D231F849FA5
:101F8000600D211D822F762F6A2F11249F575040FC
:101F90009AF0F1F088234AF0EE0FFF1FBB1F661F77
:101FA000771F881F91505040A9F79E3F510580F040
:101FB0000C942C0F0C94770F5F3FE4F3983ED4F30E
:101FC000869577956795B795F795E7959F5FC1F7E4
:101FD000FE2B880F911D9695879597F908958F92FE
:101FE0009F92AF92BF92CF92DF92EF92FF92CF93E8
:101FF000DF93EC01688179818A819B81611571058C
:102000008105910521F464E279ED8BE597E02DE1FE
:1020100033EF41E050E00E94491049015A019B0111
:10202000AC01A7EAB1E40E9468106B017C01ACEE40
:10203000B4EFA50194010E947610DC01CB018C0D58
:102040009D1DAE1DBF1DB7FF03C00197A109B0487C
:1020500088839983AA83BB839F77DF91CF91FF9079
:10206000EF90DF90CF90BF90AF909F908F900895AA
:102070000C94EF0F8DE191E00C94EF0FA0E0B0E035
:1020800080931D0190931E01A0931F01B093200126
:102090000895052E97FB1EF400940E94601057FDD2
:1020A00007D00E94250E07FC03D04EF40C9460105C
:1020B00050954095309521953F4F4F4F5F4F089574
:1020C00090958095709561957F4F8F4F9F4F0895A4
:1020D0000E947B10A59F900DB49F900DA49F800D32
:1020E000911D11240895B7FF0C9468100E94681088
:1020F000821B930B0895A29FB001B39FC001A39FC1
:10210000700D811D1124911DB29F700D811D112430
:08211000911D0895F894FFCF22
:10211800000000020000000067000000000001004D
:10212800000061010001000100FFFF26000100001E
:0E2138000042014D01580163016E0179010062
:00000001FF
